:060000000A128A11FC2F18
:100F7C00831603138601831203138601831603134E
:100F8C0088018312031388010618861CCA2F0814C3
:100F9C003330F200BC30F1001030F000F00BD42FE5
:100FAC00F10BD42FF20BD42F831203130810333010
:100FBC00F200BC30F1001030F000F00BE32FF10B1D
:100FCC00E32FF20BE32F8312031388143330F20058
:100FDC00BC30F1001030F000F00BF22FF10BF22FBF
:100FEC00F20BF22F831203138810CA2F83010A12FB
:040FFC008A11BE2F69
:02400E00FA3F77
:00000001FF
