:060000000A128A11FC2F18
:100BAA0070087104031DF22D0630F4001330F300AF
:100BBA00B130F200F20BDF2DF30BDF2DF40BDF2D3A
:100BCA00E62D0830831203130806031DEF2D0130AA
:100BDA00880008000310880D08000630F40013305E
:100BEA00F300B130F200F20BF82DF30BF82DF40BF1
:100BFA00F82DFF2D831203130803031D072E083057
:100C0A00880008000310880C0800073083160313B5
:100C1A009C0086018312031386018316031388013D
:100C2A00013083120313880083120313061C2E2E2D
:100C3A00031086190314003003180130F500F60179
:100C4A007508F0007608F1000A128A11E0260A12E5
:100C5A008A1183120313861C432E03108619031468
:100C6A00003003180130F500F6017508F000760827
:100C7A00F1000A128A116E270A128A1183120313CB
:100C8A00061D592E0310861903140030031801306B
:100C9A00F500F6017508F0007608F1000A128A11CB
:100CAA006D260A128A11192E03108312031386194C
:100CBA000314003003180130F500F6017508F0003E
:100CCA007608F1000A128A11D5250A128A11192EFC
:100CDA0070087104031DA92E831203138801881555
:100CEA0008140630F4001330F300B130F200F20BAE
:100CFA007C2EF30B7C2EF40B7C2E832E8312031393
:100D0A0088110810881408150630F4001330F3000F
:100D1A00B130F200F20B8F2EF30B8F2EF40B8F2EC5
:100D2A00962E831203138810081188150630F400D2
:100D3A001330F300B130F200F20BA12EF30BA12E07
:100D4A00F40BA12EA82E080083120313880188151C
:100D5A000630F4001330F300B130F200F20BB32E78
:100D6A00F30BB32EF40BB32EBA2E8312031388118E
:100D7A00881408150630F4001330F300B130F2007D
:100D8A00F20BC52EF30BC52EF40BC52ECC2E8312F7
:100D9A00031388100811881508140630F40013305C
:100DAA00F300B130F200F20BD82EF30BD82EF40B6D
:100DBA00D82EDF2E080070087104031D292F831214
:100DCA000313880108140630F4001330F300B1301D
:100DDA00F200F20BEE2EF30BEE2EF40BEE2EF52EA6
:100DEA0083120313081008150630F4001330F300B9
:100DFA00B130F200F20BFF2EF30BFF2EF40BFF2E95
:100E0A00062F83120313081188150630F4001330D5
:100E1A00F300B130F200F20B102FF30B102FF40B8A
:100E2A00102F172F83120313881188140630F40029
:100E3A001330F300B130F200F20B212FF30B212F04
:100E4A00F40B212F282F080083120313880188141A
:100E5A000630F4001330F300B130F200F20B332FF6
:100E6A00F30B332FF40B332F3A2F8312031388100B
:100E7A0088150630F4001330F300B130F200F20B9B
:100E8A00442FF30B442FF40B442F4B2F83120313DD
:100E9A00881108150630F4001330F300B130F2005F
:100EAA00F20B552FF30B552FF40B552F5C2F831292
:100EBA000313081108140630F4001330F300B1309C
:100ECA00F200F20B662FF30B662FF40B662F6D2FD1
:100EDA00080070087104031DB72F831203138801D9
:100EEA0088150630F4001330F300B130F200F20B2B
:100EFA007C2FF30B7C2FF40B7C2F832F831203138D
:100F0A00881188140630F4001330F300B130F2006F
:100F1A00F20B8D2FF30B8D2FF40B8D2F942F831241
:100F2A000313881008140630F4001330F300B130AC
:100F3A00F200F20B9E2FF30B9E2FF40B9E2FA52F80
:100F4A0083120313081008150630F4001330F30057
:100F5A00B130F200F20BAF2FF30BAF2FF40BAF2F20
:100F6A00B62F080083120313880108150630F4000F
:100F7A001330F300B130F200F20BC12FF30BC12F83
:100F8A00F40BC12FC82F831203130811081406305B
:100F9A00F4001330F300B130F200F20BD22FF30B4E
:100FAA00D22FF40BD22FD92F8312031308108814CF
:100FBA000630F4001330F300B130F200F20BE32FE5
:100FCA00F30BE32FF40BE32FEA2F8312031388109A
:100FDA0088150630F4001330F300B130F200F20B3A
:100FEA00F42FF30BF42FF40BF42FFB2F08008301DB
:060FFA000A128A110A2E02
:02400E00F93F78
:00000001FF
